{
  "abi": [
    {
      "inputs": [],
      "stateMutability": "nonpayable",
      "type": "constructor"
    },
    {
      "anonymous": false,
      "inputs": [
        {
          "indexed": false,
          "internalType": "address",
          "name": "_addr",
          "type": "address"
        },
        {
          "indexed": false,
          "internalType": "uint256",
          "name": "_amount",
          "type": "uint256"
        }
      ],
      "name": "ClaimerAllocate",
      "type": "event"
    },
    {
      "anonymous": false,
      "inputs": [
        {
          "indexed": false,
          "internalType": "uint256",
          "name": "_amount",
          "type": "uint256"
        }
      ],
      "name": "ClaimerBurn",
      "type": "event"
    },
    {
      "anonymous": false,
      "inputs": [
        {
          "indexed": false,
          "internalType": "uint256",
          "name": "_amount",
          "type": "uint256"
        }
      ],
      "name": "ClaimerClaim",
      "type": "event"
    },
    {
      "inputs": [
        {
          "internalType": "address",
          "name": "_addr",
          "type": "address"
        }
      ],
      "name": "addAuthorizedAdr",
      "outputs": [],
      "stateMutability": "nonpayable",
      "type": "function"
    },
    {
      "inputs": [
        {
          "internalType": "address",
          "name": "_addr",
          "type": "address"
        },
        {
          "internalType": "uint256",
          "name": "_amount",
          "type": "uint256"
        },
        {
          "internalType": "uint256",
          "name": "_expirationDate",
          "type": "uint256"
        }
      ],
      "name": "allocate",
      "outputs": [],
      "stateMutability": "nonpayable",
      "type": "function"
    },
    {
      "inputs": [
        {
          "internalType": "address",
          "name": "",
          "type": "address"
        }
      ],
      "name": "allocationAuthorities",
      "outputs": [
        {
          "internalType": "bool",
          "name": "",
          "type": "bool"
        }
      ],
      "stateMutability": "view",
      "type": "function"
    },
    {
      "inputs": [
        {
          "internalType": "address",
          "name": "",
          "type": "address"
        },
        {
          "internalType": "uint256",
          "name": "",
          "type": "uint256"
        }
      ],
      "name": "allocations",
      "outputs": [
        {
          "internalType": "uint256",
          "name": "amount",
          "type": "uint256"
        },
        {
          "internalType": "uint256",
          "name": "expirationDate",
          "type": "uint256"
        }
      ],
      "stateMutability": "view",
      "type": "function"
    },
    {
      "inputs": [
        {
          "internalType": "uint256",
          "name": "_amount",
          "type": "uint256"
        }
      ],
      "name": "burn",
      "outputs": [],
      "stateMutability": "nonpayable",
      "type": "function"
    },
    {
      "inputs": [
        {
          "internalType": "address",
          "name": "",
          "type": "address"
        }
      ],
      "name": "burns",
      "outputs": [
        {
          "internalType": "uint256",
          "name": "",
          "type": "uint256"
        }
      ],
      "stateMutability": "view",
      "type": "function"
    },
    {
      "inputs": [
        {
          "internalType": "uint256",
          "name": "_amount",
          "type": "uint256"
        }
      ],
      "name": "claim",
      "outputs": [],
      "stateMutability": "nonpayable",
      "type": "function"
    },
    {
      "inputs": [
        {
          "internalType": "address",
          "name": "",
          "type": "address"
        }
      ],
      "name": "claims",
      "outputs": [
        {
          "internalType": "uint256",
          "name": "",
          "type": "uint256"
        }
      ],
      "stateMutability": "view",
      "type": "function"
    },
    {
      "inputs": [
        {
          "internalType": "address",
          "name": "_addr",
          "type": "address"
        },
        {
          "internalType": "uint256",
          "name": "idx",
          "type": "uint256"
        }
      ],
      "name": "getAmount",
      "outputs": [
        {
          "internalType": "uint256",
          "name": "",
          "type": "uint256"
        }
      ],
      "stateMutability": "view",
      "type": "function"
    },
    {
      "inputs": [],
      "name": "owner",
      "outputs": [
        {
          "internalType": "address",
          "name": "",
          "type": "address"
        }
      ],
      "stateMutability": "view",
      "type": "function"
    },
    {
      "inputs": [
        {
          "internalType": "address",
          "name": "_addr",
          "type": "address"
        }
      ],
      "name": "rmAuthorizedAdr",
      "outputs": [],
      "stateMutability": "nonpayable",
      "type": "function"
    }
  ],
  "bytecode": {
    "object": "0x60a060405234801561001057600080fd5b5033608081905261002090610025565b6100a7565b6080516001600160a01b031633146100835760405162461bcd60e51b815260206004820152601960248201527f4f6e6c79204f776e657220697320617574686f72697a65642e00000000000000604482015260640160405180910390fd5b6001600160a01b03166000908152602081905260409020805460ff19166001179055565b608051610b076100d76000396000818161015c0152818161024d0152818161034401526103ed0152610b076000f3fe608060405234801561001057600080fd5b50600436106100a95760003560e01c80634890cb9f116100715780634890cb9f146101445780638da5cb5b14610157578063ab3f22d514610196578063c6788bdd146101a9578063db6b5ffe146101c9578063e0b999a1146101fc57600080fd5b8063010bc33c146100ae5780631c2057d3146100db57806324df7cd9146100f0578063379607f51461011e57806342966c6814610131575b600080fd5b6100c16100bc366004610941565b61020f565b604080519283526020830191909152015b60405180910390f35b6100ee6100e936600461096b565b61024b565b005b6101106100fe36600461096b565b60036020526000908152604090205481565b6040519081526020016100d2565b6100ee61012c36600461098d565b6102c0565b6100ee61013f36600461098d565b610303565b6100ee61015236600461096b565b610342565b61017e7f000000000000000000000000000000000000000000000000000000000000000081565b6040516001600160a01b0390911681526020016100d2565b6100ee6101a43660046109a6565b6103eb565b6101106101b736600461096b565b60026020526000908152604090205481565b6101ec6101d736600461096b565b60006020819052908152604090205460ff1681565b60405190151581526020016100d2565b61011061020a366004610941565b610557565b6001602052816000526040600020818154811061022b57600080fd5b600091825260209091206002909102018054600190910154909250905082565b7f00000000000000000000000000000000000000000000000000000000000000006001600160a01b0316331461029c5760405162461bcd60e51b8152600401610293906109d9565b60405180910390fd5b6001600160a01b03166000908152602081905260409020805460ff19166001179055565b3360008181526020819052604090205460ff1615156001146102f45760405162461bcd60e51b815260040161029390610a10565b6102ff82600161059b565b5050565b3360008181526020819052604090205460ff1615156001146103375760405162461bcd60e51b815260040161029390610a10565b6102ff82600061059b565b7f00000000000000000000000000000000000000000000000000000000000000006001600160a01b0316331461038a5760405162461bcd60e51b8152600401610293906109d9565b6001600160a01b038116600090815260208190526040902054819060ff1615156001146103c95760405162461bcd60e51b815260040161029390610a10565b506001600160a01b03166000908152602081905260409020805460ff19169055565b7f00000000000000000000000000000000000000000000000000000000000000006001600160a01b031633146104335760405162461bcd60e51b8152600401610293906109d9565b6001600160a01b038316600090815260208190526040902054839060ff1615156001146104725760405162461bcd60e51b815260040161029390610a10565b8142106104cb5760405162461bcd60e51b815260206004820152602160248201527f5468652065787069726174696f6e2064617465206973206e6f742076616c69646044820152601760f91b6064820152608401610293565b60408051808201825284815260208082018581526001600160a01b03881660008181526001808552868220805480830182559083529185902086516002909302019182559251920191909155835190815290810186905290917fa54ffaac9ea4a713b126b63d24d4c458630de3d66bce4a396228afe36f4a43d691015b60405180910390a15050505050565b6001600160a01b038216600090815260016020526040812080548390811061058157610581610a47565b906000526020600020906002020160000154905092915050565b6000805b3360009081526001602052604090205481101561086d573360009081526001602052604081208054839081106105d7576105d7610a47565b600091825260209182902060408051808201909152600290920201805482526001015491810182905291504210156107725780518590610618908590610a73565b1061072a576106278386610a8b565b33600090815260016020526040902080548490811061064857610648610a47565b906000526020600020906002020160000160008282546106689190610a8b565b909155505083156106cf573360009081526002602052604081208054879290610692908490610a73565b90915550506040518581527fd1b85a8e70f7e720773e64e22d0cd969891d5c3576a7a2b855ad54248f4d50b19060200160405180910390a1610723565b33600090815260036020526040812080548792906106ee908490610a73565b90915550506040518581527f76e94c9362ae0b5763bda5ff97fa3d6596687eb3d0b56ddc215ab9ef967a09ea90602001610548565b5050505050565b80516107369084610a73565b336000908152600160205260408120805492955090918490811061075c5761075c610a47565b600091825260209091206002909102015561085a565b3360009081526001602081905260409091205461078f9190610a8b565b821461081d57336000908152600160208190526040909120906107b29084610a8b565b815481106107c2576107c2610a47565b6000918252602080832033845260019182905260409093206002909202909201916107ee908590610a73565b815481106107fe576107fe610a47565b6000918252602090912082546002909202019081556001918201549101555b33600090815260016020526040902080548061083b5761083b610aa2565b6000828152602081206002600019909301928302018181556001015590555b508061086581610ab8565b91505061059f565b5081156108d1573360009081526002602052604081208054839290610893908490610a73565b90915550506040518181527fd1b85a8e70f7e720773e64e22d0cd969891d5c3576a7a2b855ad54248f4d50b1906020015b60405180910390a1505050565b33600090815260036020526040812080548392906108f0908490610a73565b90915550506040518181527f76e94c9362ae0b5763bda5ff97fa3d6596687eb3d0b56ddc215ab9ef967a09ea906020016108c4565b80356001600160a01b038116811461093c57600080fd5b919050565b6000806040838503121561095457600080fd5b61095d83610925565b946020939093013593505050565b60006020828403121561097d57600080fd5b61098682610925565b9392505050565b60006020828403121561099f57600080fd5b5035919050565b6000806000606084860312156109bb57600080fd5b6109c484610925565b95602085013595506040909401359392505050565b60208082526019908201527f4f6e6c79204f776e657220697320617574686f72697a65642e00000000000000604082015260600190565b6020808252601f908201527f546869732061646472657373206973206e6f7420617574686f72697a65642e00604082015260600190565b634e487b7160e01b600052603260045260246000fd5b634e487b7160e01b600052601160045260246000fd5b60008219821115610a8657610a86610a5d565b500190565b600082821015610a9d57610a9d610a5d565b500390565b634e487b7160e01b600052603160045260246000fd5b600060018201610aca57610aca610a5d565b506001019056fea264697066735822122085c26e61e8a0c396813593d4b42ac9dde41fa5b3435a0c97625b08310fdb74d764736f6c634300080f0033",
    "linkReferences": {}
  },
  "methodIdentifiers": {
    "addAuthorizedAdr(address)": "1c2057d3",
    "allocate(address,uint256,uint256)": "ab3f22d5",
    "allocationAuthorities(address)": "db6b5ffe",
    "allocations(address,uint256)": "010bc33c",
    "burn(uint256)": "42966c68",
    "burns(address)": "24df7cd9",
    "claim(uint256)": "379607f5",
    "claims(address)": "c6788bdd",
    "getAmount(address,uint256)": "e0b999a1",
    "owner()": "8da5cb5b",
    "rmAuthorizedAdr(address)": "4890cb9f"
  },
  "id": 6
}