{
  "abi": [
    {
      "inputs": [],
      "stateMutability": "nonpayable",
      "type": "constructor"
    },
    {
      "anonymous": false,
      "inputs": [
        {
          "indexed": false,
          "internalType": "address",
          "name": "_addr",
          "type": "address"
        },
        {
          "indexed": false,
          "internalType": "uint256",
          "name": "_amount",
          "type": "uint256"
        }
      ],
      "name": "ClaimerAllocate",
      "type": "event"
    },
    {
      "anonymous": false,
      "inputs": [
        {
          "indexed": false,
          "internalType": "uint256",
          "name": "_amount",
          "type": "uint256"
        }
      ],
      "name": "ClaimerBurn",
      "type": "event"
    },
    {
      "anonymous": false,
      "inputs": [
        {
          "indexed": false,
          "internalType": "uint256",
          "name": "_amount",
          "type": "uint256"
        }
      ],
      "name": "ClaimerClaim",
      "type": "event"
    },
    {
      "inputs": [
        {
          "internalType": "address",
          "name": "_addr",
          "type": "address"
        }
      ],
      "name": "addAuthorizedAdr",
      "outputs": [],
      "stateMutability": "nonpayable",
      "type": "function"
    },
    {
      "inputs": [
        {
          "internalType": "address",
          "name": "_addr",
          "type": "address"
        },
        {
          "internalType": "uint256",
          "name": "_amount",
          "type": "uint256"
        },
        {
          "internalType": "uint256",
          "name": "_expirationDate",
          "type": "uint256"
        }
      ],
      "name": "allocate",
      "outputs": [],
      "stateMutability": "nonpayable",
      "type": "function"
    },
    {
      "inputs": [
        {
          "internalType": "address",
          "name": "",
          "type": "address"
        }
      ],
      "name": "allocationAuthorities",
      "outputs": [
        {
          "internalType": "bool",
          "name": "",
          "type": "bool"
        }
      ],
      "stateMutability": "view",
      "type": "function"
    },
    {
      "inputs": [
        {
          "internalType": "address",
          "name": "",
          "type": "address"
        },
        {
          "internalType": "uint256",
          "name": "",
          "type": "uint256"
        }
      ],
      "name": "allocations",
      "outputs": [
        {
          "internalType": "uint256",
          "name": "amount",
          "type": "uint256"
        },
        {
          "internalType": "uint256",
          "name": "expirationDate",
          "type": "uint256"
        }
      ],
      "stateMutability": "view",
      "type": "function"
    },
    {
      "inputs": [
        {
          "internalType": "uint256",
          "name": "_amount",
          "type": "uint256"
        }
      ],
      "name": "burn",
      "outputs": [],
      "stateMutability": "nonpayable",
      "type": "function"
    },
    {
      "inputs": [
        {
          "internalType": "address",
          "name": "",
          "type": "address"
        }
      ],
      "name": "burns",
      "outputs": [
        {
          "internalType": "uint256",
          "name": "",
          "type": "uint256"
        }
      ],
      "stateMutability": "view",
      "type": "function"
    },
    {
      "inputs": [
        {
          "internalType": "uint256",
          "name": "_amount",
          "type": "uint256"
        }
      ],
      "name": "claim",
      "outputs": [],
      "stateMutability": "nonpayable",
      "type": "function"
    },
    {
      "inputs": [
        {
          "internalType": "address",
          "name": "",
          "type": "address"
        }
      ],
      "name": "claims",
      "outputs": [
        {
          "internalType": "uint256",
          "name": "",
          "type": "uint256"
        }
      ],
      "stateMutability": "view",
      "type": "function"
    },
    {
      "inputs": [
        {
          "internalType": "address",
          "name": "_addr",
          "type": "address"
        },
        {
          "internalType": "uint256",
          "name": "idx",
          "type": "uint256"
        }
      ],
      "name": "getAmount",
      "outputs": [
        {
          "internalType": "uint256",
          "name": "",
          "type": "uint256"
        }
      ],
      "stateMutability": "view",
      "type": "function"
    },
    {
      "inputs": [],
      "name": "owner",
      "outputs": [
        {
          "internalType": "address",
          "name": "",
          "type": "address"
        }
      ],
      "stateMutability": "view",
      "type": "function"
    },
    {
      "inputs": [
        {
          "internalType": "address",
          "name": "_addr",
          "type": "address"
        }
      ],
      "name": "rmAuthorizedAdr",
      "outputs": [],
      "stateMutability": "nonpayable",
      "type": "function"
    }
  ],
  "bytecode": {
    "object": "0x60a060405234801561001057600080fd5b5033608081905261002090610025565b6100a7565b6080516001600160a01b031633146100835760405162461bcd60e51b815260206004820152601960248201527f4f6e6c79204f776e657220697320617574686f72697a65642e00000000000000604482015260640160405180910390fd5b6001600160a01b03166000908152602081905260409020805460ff19166001179055565b608051610afa6100d76000396000818161015c0152818161024d015281816106e2015261078b0152610afa6000f3fe608060405234801561001057600080fd5b50600436106100a95760003560e01c80634890cb9f116100715780634890cb9f146101445780638da5cb5b14610157578063ab3f22d514610196578063c6788bdd146101a9578063db6b5ffe146101c9578063e0b999a1146101fc57600080fd5b8063010bc33c146100ae5780631c2057d3146100db57806324df7cd9146100f0578063379607f51461011e57806342966c6814610131575b600080fd5b6100c16100bc36600461094a565b61020f565b604080519283526020830191909152015b60405180910390f35b6100ee6100e9366004610974565b61024b565b005b6101106100fe366004610974565b60036020526000908152604090205481565b6040519081526020016100d2565b6100ee61012c366004610996565b6102c0565b6100ee61013f366004610996565b6104da565b6100ee610152366004610974565b6106e0565b61017e7f000000000000000000000000000000000000000000000000000000000000000081565b6040516001600160a01b0390911681526020016100d2565b6100ee6101a43660046109af565b610789565b6101106101b7366004610974565b60026020526000908152604090205481565b6101ec6101d7366004610974565b60006020819052908152604090205460ff1681565b60405190151581526020016100d2565b61011061020a36600461094a565b6108ea565b6001602052816000526040600020818154811061022b57600080fd5b600091825260209091206002909102018054600190910154909250905082565b7f00000000000000000000000000000000000000000000000000000000000000006001600160a01b0316331461029c5760405162461bcd60e51b8152600401610293906109e2565b60405180910390fd5b6001600160a01b03166000908152602081905260409020805460ff19166001179055565b3360008181526020819052604090205460ff1615156001146102f45760405162461bcd60e51b815260040161029390610a19565b6000805b3360009081526001602052604090205481101561047c5733600090815260016020526040812080548390811061033057610330610a50565b600091825260209182902060408051808201909152600290920201805482526001015491810182905291504210156104695780518590610371908590610a7c565b10610425576103808386610a94565b3360009081526001602052604090208054849081106103a1576103a1610a50565b906000526020600020906002020160000160008282546103c19190610a94565b909155505033600090815260026020526040812080548792906103e5908490610a7c565b90915550506040518581527fd1b85a8e70f7e720773e64e22d0cd969891d5c3576a7a2b855ad54248f4d50b1906020015b60405180910390a15050505050565b80516104319084610a7c565b336000908152600160205260408120805492955090918490811061045757610457610a50565b60009182526020909120600290910201555b508061047481610aab565b9150506102f8565b50336000908152600260205260408120805483929061049c908490610a7c565b90915550506040518181527fd1b85a8e70f7e720773e64e22d0cd969891d5c3576a7a2b855ad54248f4d50b1906020015b60405180910390a1505050565b3360008181526020819052604090205460ff16151560011461050e5760405162461bcd60e51b815260040161029390610a19565b6000805b3360009081526001602052604090205481101561068b5733600090815260016020526040812080548390811061054a5761054a610a50565b60009182526020918290206040805180820190915260029092020180548252600101549181018290529150421015610678578051859061058b908590610a7c565b106106345761059a8386610a94565b3360009081526001602052604090208054849081106105bb576105bb610a50565b906000526020600020906002020160000160008282546105db9190610a94565b909155505033600090815260036020526040812080548792906105ff908490610a7c565b90915550506040518581527f76e94c9362ae0b5763bda5ff97fa3d6596687eb3d0b56ddc215ab9ef967a09ea90602001610416565b80516106409084610a7c565b336000908152600160205260408120805492955090918490811061066657610666610a50565b60009182526020909120600290910201555b508061068381610aab565b915050610512565b5033600090815260036020526040812080548392906106ab908490610a7c565b90915550506040518181527f76e94c9362ae0b5763bda5ff97fa3d6596687eb3d0b56ddc215ab9ef967a09ea906020016104cd565b7f00000000000000000000000000000000000000000000000000000000000000006001600160a01b031633146107285760405162461bcd60e51b8152600401610293906109e2565b6001600160a01b038116600090815260208190526040902054819060ff1615156001146107675760405162461bcd60e51b815260040161029390610a19565b506001600160a01b03166000908152602081905260409020805460ff19169055565b7f00000000000000000000000000000000000000000000000000000000000000006001600160a01b031633146107d15760405162461bcd60e51b8152600401610293906109e2565b6001600160a01b038316600090815260208190526040902054839060ff1615156001146108105760405162461bcd60e51b815260040161029390610a19565b8142106108695760405162461bcd60e51b815260206004820152602160248201527f5468652065787069726174696f6e2064617465206973206e6f742076616c69646044820152601760f91b6064820152608401610293565b60408051808201825284815260208082018581526001600160a01b03881660008181526001808552868220805480830182559083529185902086516002909302019182559251920191909155835190815290810186905290917fa54ffaac9ea4a713b126b63d24d4c458630de3d66bce4a396228afe36f4a43d69101610416565b6001600160a01b038216600090815260016020526040812080548390811061091457610914610a50565b906000526020600020906002020160000154905092915050565b80356001600160a01b038116811461094557600080fd5b919050565b6000806040838503121561095d57600080fd5b6109668361092e565b946020939093013593505050565b60006020828403121561098657600080fd5b61098f8261092e565b9392505050565b6000602082840312156109a857600080fd5b5035919050565b6000806000606084860312156109c457600080fd5b6109cd8461092e565b95602085013595506040909401359392505050565b60208082526019908201527f4f6e6c79204f776e657220697320617574686f72697a65642e00000000000000604082015260600190565b6020808252601f908201527f546869732061646472657373206973206e6f7420617574686f72697a65642e00604082015260600190565b634e487b7160e01b600052603260045260246000fd5b634e487b7160e01b600052601160045260246000fd5b60008219821115610a8f57610a8f610a66565b500190565b600082821015610aa657610aa6610a66565b500390565b600060018201610abd57610abd610a66565b506001019056fea2646970667358221220cbd2b8c17600e0ce2badf3781c995e7ea1e490d8222b60e1fc80bf49b7665a5f64736f6c634300080f0033",
    "linkReferences": {}
  },
  "methodIdentifiers": {
    "addAuthorizedAdr(address)": "1c2057d3",
    "allocate(address,uint256,uint256)": "ab3f22d5",
    "allocationAuthorities(address)": "db6b5ffe",
    "allocations(address,uint256)": "010bc33c",
    "burn(uint256)": "42966c68",
    "burns(address)": "24df7cd9",
    "claim(uint256)": "379607f5",
    "claims(address)": "c6788bdd",
    "getAmount(address,uint256)": "e0b999a1",
    "owner()": "8da5cb5b",
    "rmAuthorizedAdr(address)": "4890cb9f"
  },
  "id": 6
}